:060000000A128A11FC2F18
:100E6800F4007408831203178D00831603178C137C
:100E78000C14831203170C08F5007508F200F3012F
:100E88007208F0007308F1000800F10083160317D8
:100E98008C184F2F502F4A2F7108831203178D007B
:100EA80070088C00831603178C130C158B135530A0
:100EB8008D00AA308D008C148B130C118C10080037
:100EC8000F308316031386008801831203138801E9
:100ED80083120313861C712F722F8B2FF001F00AD7
:100EE8007A080A128A1149270A128A110130FF006A
:100EF8007F08FA070330F8008A30F7005530F6000B
:100F0800F60B842FF70B842FF80B842F8B2F83126B
:100F18000313061D902F912FAA2F0230F0007A0894
:100F28000A128A1149270A128A110130FF007F0824
:100F3800FA070330F8008A30F7005530F600F60B50
:100F4800A32FF70BA32FF80BA32FAA2F831203139A
:100F5800861DAF2FB02FC92F0330F0007A080A1270
:100F68008A1149270A128A110130FF007F08FA07FF
:100F78000330F8008A30F7005530F600F60BC22F20
:100F8800F70BC22FF80BC22FC92F03307A06031DA7
:100F9800CE2FCF2FD02FFA01831203130618D52F87
:100FA800D62F6C2FF90179080A128A1134270A12F0
:100FB8008A1170088312031388000630F800133072
:100FC800F700AD30F600F60BE72FF70BE72FF80B1D
:100FD800E72FEE2F0130FF007F08F9070330790271
:100FE800031CF72FF82FD72F6C2F0A128A1100280D
:080FF80083010A128A11642F23
:00000001FF
