:100000000A128A11FC2F00308A000408840A820731
:100010000034583469346E342034633468346134C5
:100020006F3400343134323433343434353438348A
:04003000373400342D
:100E7000F400F5014C2F7508740784000A128A11DA
:100E800003200A128A110A128A11CB270A128A1128
:100E90000130FF007F08F50773087502031C512F0E
:100EA000522F3B2F080002300A128A119A270A1289
:100EB0008A1128300A128A119A270A128A110C30D4
:100EC0000A128A119A270A128A1106300A128A1106
:100ED0009A270A128A1101300A128A119A270A12D5
:100EE0008A1108008316031386010A128A115327F8
:100EF0000A128A1180300A128A119A270A128A115C
:100F00000830F30001300A128A1138270A128A11B8
:100F1000C0300A128A119A270A128A110730F30088
:100F20000A300A128A1138270A128A117A2F0A12F5
:100F30008A110028F2007208F03983120313860028
:100F40000615861006102130F1007630F000F00B07
:100F5000A72FF10BA72F00008312031306117208AD
:100F6000F00003300310F00DFF3E031DB22F0310FD
:100F7000700DF03986000615861006102130F1003C
:100F80007630F000F00BC22FF10BC22F000083125D
:100F9000031306110800F2007208F03983120313DC
:100FA00086000615861006142130F1007630F00018
:100FB000F00BD82FF10BD82F00008312031306116A
:100FC0007208F00003300310F00DFF3E031DE32F05
:100FD0000310700DF03986000615861006142130B6
:100FE000F1007630F000F00BF32FF10BF32F00003F
:100FF000831203130611080083010A128A11722F4B
:02400E00363F3B
:00000001FF
