:060000000A128A11FC2F18
:100E84000430710200300319700203184A2F4B2FEB
:100E9400622F70184E2F522F831203131716552FDB
:100EA40083120313171297127108F3007008F200EB
:100EB4000310F30CF20C0310F30CF20C72089500FF
:100EC40008001F308316031386000810881083124D
:100ED40003130810881497151715831603130711A5
:100EE4007C30920083120313121492101215831291
:100EF400031306187E2F7F2F902F013088060230AF
:100F040088060330F6008A30F5005530F400F40BFF
:100F1400892FF50B892FF60B892F902F831203133A
:100F24008618952F962FA72F0030F000F1000A1293
:100F34008A1142270A128A118230F500DD30F4004A
:100F4400F40BA22FF50BA22FA72F8312031306195C
:100F5400AC2FAD2FBF2FFA30F0000030F1000A1291
:100F64008A1142270A128A118230F500DD30F4001A
:100F7400F40BBA2FF50BBA2FBF2F83120313861964
:100F8400C42FC52FD72F7730F0000130F1000A129B
:100F94008A1142270A128A118230F500DD30F400EA
:100FA400F40BD22FF50BD22FD72F83120313061A6B
:100FB400DC2FDD2FEF2FF430F0000130F1000A12A6
:100FC4008A1142270A128A118230F500DD30F400BA
:100FD400F40BEA2FF50BEA2FEF2F0D30F500FB3061
:100FE400F400F40BF32FF50BF32FF82F792F0A12DB
:0C0FF4008A11002883010A128A11632F61
:00000001FF
