:060000000A128A11EE2F26
:100B8E00C034F934A434B034993492348234F83405
:100B9E00803498347E088A007F0882000A128A11F7
:100BAE00D1250A128A118000840A04087D060319D1
:100BBE000034FF0A0319FE0AD52D700871040319BB
:100BCE00E92DEA2D192EF401F40AF82D0130031047
:100BDE00F00DF10DFF3E031DEE2D0130FF007F08DD
:100BEE00F407F11FFB2DFC2DED2D71087302031D73
:100BFE00022E70087202031C052E062E0C2E700893
:100C0E00F2027108031CF303F30201300310F10C1E
:100C1E00F00CFF3E031D0D2E0130F402031D182EA5
:100C2E00192EFC2D7308F1007208F0000800F9016E
:100C3E00FA01750876040319252E262E5D2EFB016A
:100C4E00FB0A342E01300310F50DF60DFF3E031D89
:100C5E002A2E0130FF007F08FB07F61F372E382E95
:100C6E00292E01300310F90DFA0DFF3E031D392E0A
:100C7E0076087802031D452E75087702031C482E50
:100C8E00492E502E7508F7027608031CF803F80259
:100C9E00791401300310F60CF50CFF3E031D512E96
:100CAE000130FB02031D5C2E5D2E382E7A08F600F5
:100CBE007908F5000800F1007118662E6A2E83126D
:100CCE00031306146D2E8312031306107108F00021
:100CDE0001300310F00CFF3E031D702E7018782E9D
:100CEE007C2E8312031386147F2E83120313861019
:100CFE007108F00002300310F00CFF3E031D822E2F
:100D0E0070188A2E8E2E831203130615912E8312BF
:100D1E00031306117108F00003300310F00CFF3EB0
:100D2E00031D942E70189C2EA02E8312031386156D
:100D3E00A32E8312031386117108F00004300310E2
:100D4E00F00CFF3E031DA62E7018AE2EB22E83128F
:100D5E0003130616B52E8312031306127108F00044
:100D6E0005300310F00CFF3E031DB82E7018C02E78
:100D7E00C42E831203138616C72E831203138612F4
:100D8E007108F00006300310F00CFF3E031DCA2E52
:100D9E007018D22ED62E831203130617D92E831255
:100DAE00031306137108F00007300310F00CFF3E1A
:100DBE00031DDC2E7018E42EE82E83120313861703
:100DCE00EB2E83120313861308008316031386017A
:100DDE008701013083120313860001308700AE01B4
:100DEE00AF010714E830F5000330F6002F08F800C5
:100DFE002E08F7000A128A111E260A128A11750889
:100E0E00203E8400831300080A128A1162260A12F9
:100E1E008A114130FD00EE30FC00FC0B142FFD0B4F
:100E2E00142F000083120313071087146430F5008B
:100E3E000030F6002F08F3002E08F200E830F00024
:100E4E000330F1000A128A11E4250A128A11710880
:100E5E00F8007008F7000A128A111E260A128A116B
:100E6E007508203E8400831300080A128A11622638
:100E7E000A128A114130FD00EE30FC00FC0B452FAA
:100E8E00FD0B452F000083120313871007152F0843
:100E9E00F3002E08F200E830F0000330F1000A12E1
:100EAE008A11E4250A128A11710883120313AD0008
:100EBE007008AC000A30F5000030F6002D08F30083
:100ECE002C08F2006430F0000030F1000A128A1192
:100EDE00E4250A128A117108F8007008F7000A1248
:100EEE008A111E260A128A117508203E8400831369
:100EFE0000080A128A1162260A128A114130FD0078
:100F0E00EE30FC00FC0B892FFD0B892F00008312A5
:100F1E000313071187152F08F3002E08F200E8308F
:100F2E00F0000330F1000A128A11E4250A128A1128
:100F3E00710883120313AD007008AC002D08F30086
:100F4E002C08F2006430F0000030F1000A128A1111
:100F5E00E4250A128A11710883120313AB0070087C
:100F6E00AA000A30F0000030F1002B08F3002A0826
:100F7E00F2000A128A11E4250A128A117008203E24
:100F8E008400831300080A128A1162260A128A113B
:100F9E004130FD00EE30FC00FC0BD32FFD0BD32FA8
:100FAE0000008312031387110130AE070318AF0A36
:100FBE000030AF0703302F02E83003192E02031C56
:100FCE00E92FEA2FF82EF62E0A128A110028831323
:100FDE002A30FD000530FE00C730FF0020308400AF
:100FEE000A128A11D5250A128A1183010A128A1150
:020FFE00EC2ED7
:02400E00363F3B
:00000001FF
