:100000000A128A11FC2F00308A000408840A820731
:10001000003452344534443420344C344534443470
:1000200020342D343E3420344F344E340034523496
:100030004534443420342D343E3420344F34463457
:10004000463400344C34653477344C34653477347A
:0200500000347A
:100EC800F000831203130C1E6A2F6B2F652F700816
:100ED8009900080083120313981C732F742F762F20
:100EE800181218168C1E792F7A2F762F1A080800D8
:100EF800831603130713871719309900181518124A
:100F08008312031398178316031398168312031377
:100F180018168316031318138312031318130800E3
:100F2800F100A62F710884000A128A1103200A1200
:100F38008A110A128A1164270A128A110130FF00E5
:100F48007F08F107710884000A128A1103200A1227
:100F58008A11003A031DB12FB22F962F080083166D
:100F6800031386010A128A117C270A128A111A3081
:100F78000A128A1194270A128A110A128A116E27F4
:100F88000A128A11F200F3017208F4007308F500DE
:100F9800313074067504031DD22FD32FE22F83122C
:100FA8000313861501300A128A1194270A128A112E
:100FB8000A300A128A1164270A128A11303074061C
:100FC8007504031DE82FE92FC12F8312031386111F
:100FD8000F300A128A1194270A128A110A300A124B
:100FE8008A1164270A128A11C12F0A128A1100284D
:080FF80083010A128A11B32FD4
:02400E007A3FF7
:00000001FF
