:060000000A128A11FC2F18
:100F2A004130831203139F008030831603139F00FE
:100F3A0008000A128A1195270A128A1183160313C6
:100F4A00860183120313860100300A128A11CC2704
:100F5A000A128A117008F4007108F5000310F50CE2
:100F6A00F40C0310F50CF40C7408F6007508F7007D
:100F7A007608831203138600C730F400C42FF40BDB
:100F8A00C32FC72FC82FA92F0A128A110028F300CE
:100F9A0008307302031CD22FD32FD62FF001F10190
:100FAA00FB2F0130FF007F08831203139F0573088C
:100FBA00F20002300310F20DFF3E031DDF2F031073
:100FCA00720DFF007F089F040930F200F20BEB2F2D
:100FDA00EE2F831203131F151F19F42FF52FF12F6C
:100FEA001E08F100831603131E08F000080083018F
:060FFA000A128A119E2F6D
:00000001FF
