:060000000A128A11E22F32
:10000800080083120313A700FD1F0B280C280E28D5
:10001800FC01FD01A501A60126282030F0000030D2
:10002800F100831203132708F2000A168A114322EB
:100038000A128A11013083120313A5070318A60AAE
:100048000030A6072608803AA4007D08803A2402DA
:10005800031D30287C082502031C33283428112866
:10006800831203132708F8007B080A168A110A214D
:100078000A128A1108000030831203133505BD00E7
:1000880000303605BE0080303705BF007F303805A8
:10009800C00040083F043E043D04031D5428552871
:1000A8005D280030B8000030B7000030B6000030DE
:1000B800B50000303905BD0000303A05BE0080307B
:1000C8003B05BF007F303C05C00040083F043E04AC
:1000D8003D04031D7028712879280030BC000030C9
:1000E800BB000030BA000030B900B81F7C287D285A
:1000F800A1280030BD000030BE000030BF008030B5
:10010800C0003508BD023608031C360F8C288D2820
:10011800BE023708031C370F92289328BF023808FD
:10012800031C380F98289928C0024008B8003F08D7
:10013800B7003E08B6003D08B500BC1FA428A52896
:10014800C9280030BD000030BE000030BF0080303C
:10015800C0003908BD023A08031C3A0FB428B52874
:10016800BE023B08031C3B0FBA28BB28BF023C0851
:10017800031C3C0FC028C128C0024008BC003F082F
:10018800BB003E08BA003D08B9008030B806803090
:10019800BC063C083802031DDB283B083702031D58
:1001A800DB283A083602031DDB2839083502031814
:1001B800DE28DF28E1280310E228031408003F3076
:1001C80083160313CC008030CB000030CA00003007
:1001D800C900B001B1014808F3004708F200460819
:1001E800F1004508F0000030F7000030F60000305C
:1001F800F5000030F4000A168A11F5210A128A1156
:10020800031807290829192B1929831603133708F6
:10021800CC003608CB003508CA003408C9000130C4
:10022800B0070318B10A0030B10741308312031335
:10023800A3002030A2000030A1000030A0008316E7
:1002480003134C0883120313A700831603134B08E8
:1002580083120313A600831603134A088312031399
:10026800A50083160313490883120313A4000A1276
:100278008A15BB240A128A118312031323088316D2
:100288000313B70083120313220883160313B6005F
:1002980083120313210883160313B5008312031373
:1002A800200883160313B400450883120313C600FD
:1002B80083160313460883120313C7008316031318
:1002C800470883120313C8008316031348088312D0
:1002D8000313C90083160313340883120313C602D9
:1002E800831603133508031C350F7B297E298312D7
:1002F8000313C702831603133608031C360F852918
:10030800882983120313C802831603133708031CB2
:10031800370F8F29922983120313C90283160313F7
:10032800831203134908F3004808F2004708F10054
:100338004608F0000A168A159B270A128A11F31B31
:10034800B5297308031DB6297208031DB62971085B
:10035800031DB62902307002031DB229031CB529FA
:10036800B629092983160313370883120313B80023
:1003780083160313360883120313B7008316031377
:10038800350883120313B600831603133408831247
:100398000313B50083160313480883120313BC0024
:1003A80083160313470883120313BB008316031332
:1003B800460883120313BA008316031345088312F1
:1003C8000313B9000A128A113F200A128A11031C6A
:1003D800EE29EF290929831603134508831203130D
:1003E800C60083160313460883120313C700831637
:1003F8000313470883120313C8008316031348081E
:1004080083120313C90083160313490883120313C5
:10041800C602831603134A08031C4A0F142A172A14
:1004280083120313C702831603134B08031C4B0FD5
:100438001E2A212A83120313C802831603134C08A9
:10044800031C4C0F282A2B2A83120313C902831674
:100458000313831203134908F3004808F2004708FE
:10046800F1004608F0000A168A159B270A128A111D
:10047800F31B4F2A7308031D4E2A7208031D4E2AC8
:100488007108031D4E2A02307002031D4B2A0318FF
:100498004E2A4F2AE02A831603134C08C8004B083B
:1004A800C7004A08C6004908C500192B4130F300A7
:1004B8002030F2000030F1000030F0008316031302
:1004C8004C08F7004B08F6004A08F5004908F40004
:1004D8000A128A1582200A128A11730883160313D6
:1004E800CC007208CB007108CA007008C900FF3040
:1004F800B0070318B10AFF30B10745088312031388
:10050800C60083160313460883120313C700831615
:100518000313470883120313C800831603134808FC
:1005280083120313C90083160313490883120313A4
:10053800C602831603134A08031C4A0FA42AA72AD3
:1005480083120313C702831603134B08031C4B0FB4
:10055800AE2AB12A83120313C802831603134C0868
:10056800031C4C0FB82ABB2A83120313C902831633
:100578000313831203134908F3004808F2004708DD
:10058800F1004608F0000A168A159B270A128A11FC
:10059800F31BDF2A7308031DDE2A7208031DDE2AF7
:1005A8007108031DDE2A02307002031DDB2A0318BE
:1005B800DE2ADF2AE02A4F2A83160313480883120B
:1005C8000313B80083160313470883120313B700F5
:1005D80083160313460883120313B6008316031306
:1005E800450883120313B500831603134C088312BE
:1005F8000313BC00831603134B0883120313BB00B9
:10060800831603134A0883120313BA0083160313CD
:10061800490883120313B9000A128A113F200A12EB
:100628008A11031C182B192B5A2A83120313450805
:1006380083160313A9002908AA0083120313EC1BCD
:10064800262B272B322B6C0883160313A300831247
:1006580003136B0883160313A200382B0630831686
:100668000313A2000030A3002308AE002208AD0047
:100678000130AD070318AE0A0030AE0766302A060F
:10068800031D472B482B622BB11F4B2B4C2B562B92
:100698003F30CC008030CB000030CA000030C900A9
:1006A800B001B1016730290603195B2B5C2B622B63
:1006B8003008AD070318AE0A3108AE07B801B90112
:1006C8004808BD004708BC004608BB004508BA00FA
:1006D8004C08B7004B08B6004A08B5004908B400F2
:1006E8005D2C831603134C08F3004B08F2004A08EC
:1006F800F1004908F0003D08F7003C08F6003B0807
:10070800F5003A08F4000A128A1582200A128A11A2
:10071800730883120313B0007208AF007108AE00AB
:100728007008AD000A168A1167230A128A1183120B
:100738000313300883160313C100831203132F0811
:1007480083160313C000831203132E0883160313A2
:10075800BF00831203132D0883160313BE0041083C
:10076800F3004008F2003F08F1003E08F0000A16C6
:100778008A11F1220A128A11710883160313AC0038
:100788007008AB004C0883120313A70083160313E9
:100798004B0883120313A600831603134A08831217
:1007A8000313A50083160313490883120313A40037
:1007B80083160313410883120313A300831603133C
:1007C800400883120313A200831603133F08831201
:1007D8000313A100831603133E0883120313A0001A
:1007E8000A128A15BB240A128A11831203132308DA
:1007F800B8002208B7002108B6002008B500831603
:1008080003133D0883120313BC00831603133C082B
:1008180083120313BB00831603133B0883120313CD
:10082800BA00831603133A0883120313B9000A1691
:100838008A114E200A128A1183120313380883166C
:100848000313BD0083120313370883160313BC0078
:1008580083120313360883160313BB008312031392
:10086800350883160313BA004130F3002030F20034
:100878000030F1000030F0004C08F7004B08F6009B
:100888004A08F5004908F4000A128A1582200A125B
:100898008A11730883160313CC007208CB00710801
:1008A800CA007008C9000130B8070318B90A003037
:1008B800B9073908803A83120313C6008316031355
:1008C8002E08803A831203134602031D6F2C8316E9
:1008D80003132D083802031C722C732C752B40301F
:1008E80083120313A300A030A2000030A10000303F
:1008F800A000831603134C0883120313A700831662
:1009080003134B0883120313A600831603134A0824
:1009180083120313A50083160313490883120313D4
:10092800A4000A128A15BB240A128A11831203131F
:10093800230883160313C1008312031322088316A6
:100948000313C00083120313210883160313BF0087
:1009580083120313200883160313BE003D08831275
:100968000313B800831603133C0883120313B7005C
:10097800831603133B0883120313B600831603136D
:100988003A0883120313B500831603134108831230
:100998000313BC0083160313400883120313BB0020
:1009A800831603133F0883120313BA008316031335
:1009B8003E0883120313B9000A128A113F200A1253
:1009C8008A110318E82CE92CF42C00308316031341
:1009D800C1000030C0000030BF000030BE001D2D37
:1009E800831603133D08F3003C08F2003B08F100AE
:1009F8003A08F0004108F7004008F6003F08F50003
:100A08003E08F4000A168A11F5210A128A11031CFD
:100A18000E2D0F2D1D2D831603132B18142D152D98
:100A28001D2D0030C1000030C0000030BF00003074
:100A3800BE00831603134108F3004008F2003F0884
:100A4800F1003E08F0004808F7004708F60046089D
:100A5800F5004508F4000A128A1557220A128A116D
:100A6800730883160313BD007208BC007108BB002D
:100A78007008BA003D0883120313B80083160313E5
:100A88003C0883120313B700831603133B08831231
:100A98000313B600831603133A0883120313B50031
:100AA8004130A3002030A2000030A1000030A00097
:100AB80083160313370883120313A700831603133F
:100AC800360883120313A60083160313350883120E
:100AD8000313A50083160313340883120313A40019
:100AE8000A128A15BB240A128A11831203132308D7
:100AF800BC002208BB002108BA002008B9000A126D
:100B08008A113F200A128A11031C8B2D8C2DDF2D90
:100B1800013083160313B0070318B10A0030B10778
:100B2800413083120313A3002030A2000030A1003B
:100B38000030A00083160313370883120313A7009D
:100B480083160313360883120313A60083160313B0
:100B5800350883120313A500831603133408831280
:100B68000313A4000A128A15BB240A128A118312DD
:100B78000313230883160313B700831203132208F1
:100B880083160313B6008312031321088316031375
:100B9800B50083120313200883160313B4006630CC
:100BA8002A06031DD82DD92DDF2D0130AD070318D6
:100BB800AE0A0030AE07831603133708CC00360898
:100BC800CB003508CA003408C9003108A100300834
:100BD800A000A801A401A501B801B901532F8316EB
:100BE80003134C08F3004B08F2004A08F1004908C7
:100BF800F0003D08F7003C08F6003B08F5003A080D
:100C0800F4000A128A1582200A128A1173088312C4
:100C18000313B0007208AF007108AE007008AD0091
:100C28000A168A1167230A128A11831203133008DD
:100C380083160313C100831203132F0883160313AB
:100C4800C000831203132E0883160313BF008312F8
:100C580003132D0883160313BE004108F300400850
:100C6800F2003F08F1003E08F0000A168A11F1224E
:100C78000A128A117108803AFF0080307F02031D32
:100C8800472E0A30700203184A2E4B2E612E831607
:100C980003134108F3004008F2003F08F1003E0842
:100CA800F0000A168A11F1220A128A1171088316B5
:100CB8000313AC007008AB00672E093083160313CA
:100CC800AB000030AC002808031D6B2E6C2E9D2E47
:100CD800A11F6F2E702E9D2E4308903E84002E304B
:100CE800831780000130C3070318C40A0030C40703
:100CF800FF30B2070318B30AFF30B307A801A80AE8
:100D08009D2E4308903E84003030831780000130C8
:100D1800C3070318C40A0030C407FF30B20703181A
:100D2800B30AFF30B307FF30A4070318A50AFF3042
:100D3800A50724082504031DA22EA32E852E4308EB
:100D4800903E84002B08303E831780000130C30793
:100D58000318C40A0030C407FF30B2070318B30AE7
:100D6800FF30B3074C0883120313A700831603133D
:100D78004B0883120313A600831603134A08831231
:100D88000313A50083160313490883120313A40051
:100D980083160313410883120313A3008316031356
:100DA800400883120313A200831603133F0883121B
:100DB8000313A100831603133E0883120313A00034
:100DC8000A128A15BB240A128A11831203132308F4
:100DD800B8002208B7002108B6002008B50083161D
:100DE80003133D0883120313BC00831603133C0846
:100DF80083120313BB00831603133B0883120313E8
:100E0800BA00831603133A0883120313B9000A16AB
:100E18008A114E200A128A11831203133808831686
:100E28000313BD0083120313370883160313BC0092
:100E380083120313360883160313BB0083120313AC
:100E4800350883160313BA004130F3002030F2004E
:100E58000030F1000030F0004C08F7004B08F600B5
:100E68004A08F5004908F4000A128A1582200A1275
:100E78008A11730883160313CC007208CB0071081B
:100E8800CA007008C900FF30A0070318A10AFF3084
:100E9800A1070130B8070318B90A0030B9073908A3
:100EA800803A83120313C600831603132E08803A70
:100EB800831203134602031D652F831603132D089F
:100EC80038020318682F692F782F831603134408F4
:100ED800803AFF0080307F02031D742F4B3043029D
:100EE800031C772F782FF32D4F3083160313B80088
:100EF8000030B9003808903E840083178001903094
:100F0800F0004408F2004308F10090308312031304
:100F1800C60083160313430883120313C6028316FD
:100F2800031338088312031346070A168A11BD20D3
:100F38000A128A118316031343083802C3004408AF
:100F4800031C440A3902C4004208031DAC2FAE2F0B
:100F58000130AF2F003083120313C600C7014608C3
:100F680083160313B8008312031347088316031369
:100F7800B90042080319C12FC22FCE2FFF30C30773
:100F88000318C40AFF30C4074308903E840042088F
:100F9800831780003808B2023908031CB303B30270
:100FA8004308903EFB003308FD003208FC002F0880
:100FB8000A128A1105200A128A1108008313653063
:100FC80084006D300A168A1543270A128A11E43004
:100FD8008400F0300A168A1543270A128A118317EB
:100FE80090308400E0300A168A1543270A128A11C5
:080FF80083010A168A11B22ED2
:10100600831203136808A5006708A4006608A300F6
:101016006508A2007308A5007208A4007108A30061
:101026007008A2002208F4002308F5002408F60040
:101036002508F70017300310F70CF60CF50CF40C26
:10104600FF3E031D1E28FF307405A0000030750505
:10105600A10020082104031D312832285528220822
:10106600F4002308F5002408F6002508F7000130EF
:101076000310F40DF50DF60DF70DFF3E031D3B288D
:101086007708760475047404031D4A284B285028F3
:101096000230F0000030F10081280330F00000300B
:1010A600F1008128200A2104031D5A285B287D2887
:1010B6002208F4002308F5002408F6002508F700A6
:1010C60009300310F40DF50DF60DF70DFF3E031D67
:1010D6006428770876047504740403197328752840
:1010E600013076280030F800F9017808F000790818
:1010F600F10081280430F0000030F1000800770884
:10110600803983120313A4007708F8007807AB0030
:10111600F61F8E288F2890282B142B080319942845
:101126009528A5282B0A031D99289A28A22800305D
:10113600F7000030F6000030F5000030F400F61736
:10114600F701AD280030F7000030F6000030F5005A
:101156000030F40073088039FF007F08A406730886
:10116600F8007807AC00F21FB928BA28BB282C145F
:101176002C080319BF28C028D0282C0A031DC42810
:10118600C528CD280030F3000030F2000030F10011
:101196000030F000F217F301D8280030F3000030D9
:1011A600F2000030F1000030F000730872047104A0
:1011B6007004031DDF28E028F9280030F70000300E
:1011C600F6000030F5000030F4008030F6047F3081
:1011D600F7042408FF007F08F7047708F300760871
:1011E600F2007508F1007408F000562A2B08031D5A
:1011F600FD28FE2807290030F3000030F2000030F9
:10120600F1000030F000562A2B08F800F9017908A1
:10121600FB002C087802FA00031CFB037A087F3EC9
:10122600A5007B080318013E003EA6007708A30030
:101236007608A2007508A1007408A0000030F70027
:101246000030F6000030F5000030F4000030AA004F
:101256000030A9000030A8000030A700AC018329A7
:101266002C0803193729382958290130F8000310AA
:10127600A00DA10DA20DA30DF80B3A290130F8001F
:101286000310F40DF50DF60DF70DF80B4329AA1F03
:101296004D294E294F2974140130F8000310A70D6B
:1012A600A80DA90DAA0DF80B512973082302031DD9
:1012B600662972082202031D662971082102031D90
:1012C600662970082002031C69296A297F292A17C2
:1012D6007008A0027108031C710F72297329A102FC
:1012E6007208031C720F78297929A2027308031C5D
:1012F600730F7E297F29A3020130FF007F08AC0708
:101306001A302C02031C8829892933292308220430
:1013160021042004031990299129B0292714B02902
:101326000130F8000310F40DF50DF60DF70DF80B6E
:101336009529AA1F9F29A029A12974140130F80014
:101346000310A70DA80DA90DAA0DF80BA329FF30B0
:10135600A5070318A60AFF30A607F61FB329B42966
:101366009329AC01AA1FB829B929D529FF30270529
:10137600F800FF302805F900FF302905FA007F3014
:101386002A05FB007B087A04790478040319CC2922
:10139600CD29D029AC01AC0AD529741CD329D4296E
:1013A600D529CD292C080319D929DA290B2A013088
:1013B600F407003003180130F50700300318013038
:1013C600F607003003180130F707771CEB29EC29E4
:1013D6000B2A7408F8007508F9007608FA007708F1
:1013E600FB000130FC007B0DFB0CFA0CF90CF80C31
:1013F600FC0BF6297B08F7007A08F6007908F50059
:101406007808F4000130A5070318A60A0030A607DD
:101416002608803AFF0080307F02031D142AFF3021
:101426002502031C172A182A262AFF3083120313C3
:10143600A5000030A6000030F7000030F6000030AE
:10144600F5000030F400831203132608803AFF00EB
:1014560080307F02031D312A013025020318342A09
:10146600352A422A83120313A501A6010030F7008C
:101476000030F6000030F5000030F400A4018312BD
:1014860003132508AB002B1C492A4A2A4C2AF617B7
:10149600502A7F30FF007F08F6052B08F80003105E
:1014A600780CF700EC28080073088039F8007308F8
:1014B60083120313A0002007FA00F21F632A642A8E
:1014C600652A7A147A080319692A6A2A7A2A7A0A0C
:1014D600031D6E2A6F2A772A0030F3000030F200CF
:1014E6000030F1000030F000F217F301822A0030DC
:1014F600F3000030F2000030F1000030F000770811
:101506008039F9007908780603198A2A8B2A8C2AE9
:1015160078177708A0002007F900F61F932A942A67
:10152600952A791479080319992A9A2AAA2A790AEE
:10153600031D9E2A9F2AA72A0030F7000030F600D6
:101546000030F5000030F400F617F701B22A00303B
:10155600F7000030F6000030F5000030F4007A089D
:1015660079020318B72AB82ADE2A781FBB2ABC2AB2
:10157600C02A8030FF007F08F8067A08FB00790849
:10158600FA007B08F9007008FB007408F0007B087D
:10159600F4007108FB007508F1007B08F50072087D
:1015A600FB007608F2007B08F6007308FB0077085C
:1015B600F3007B08F700FB017908A000A1012108D0
:1015C600A3007A082002A200031CA3032308803A82
:1015D600FF0080307F02031DF22A1A302202031C0C
:1015E600F52AF62A2F2B7308720471047004031D62
:1015F600FD2AFF2A0130002B0030FB000030F300EB
:101606000030F2000030F1000030F0007908FA00F6
:10161600352B7B1C0F2B102B192B7B0883120313E6
:10162600A0000310200C0138FB001B2B0310FB0C41
:10163600701C1E2B1F2B202BFB170130831203134C
:10164600A000730DF30CF20CF10CF00CA00B242B84
:101656000130FF007F08FA0779087A02031C342B51
:10166600352B0C2B781B382B392B862B7A08031D30
:101676003D2B3E2B472B0030F3000030F2000030AC
:10168600F1000030F000BA2C7408F0077508031159
:101696000318013E0319502BF107760803110318AE
:1016A600013E0319572BF207770803110318013E71
:1016B60003195E2BF307731C612B622B3E2C7B1CDC
:1016C600652B662B6F2B7B0883120313A000031078
:1016D600200C0138FB00712B0310FB0C701C742BC3
:1016E600752B762BFB17013083120313A000730DA5
:1016F600F30CF20CF10CF00CA00B7A2B0130FF006E
:101706007F08FA073E2C7308803AFF007708803A74
:101716007F02031D982B76087202031D982B75080D
:101726007102031D982B7408700203189B2B9C2BC7
:10173600F62BFF3083120313A000FF30A100FF3009
:10174600A200FF30A3007408A4007508A50076085F
:10175600A6007708A7007008A4027108031C710F81
:10176600B52BB62BA5027208031C720FBB2BBC2B24
:10177600A6027308031C730FC12BC22BA7022408F1
:10178600A00725080318250FC92BCA2BA107260871
:101796000318260FCF2BD02BA20727080318270ADA
:1017A600A3072308F3002208F2002108F10020080D
:1017B600F0008030FF007F08F806FB09FB0A7B0873
:1017C600031DE62BE72B042C0130F007003003182D
:1017D6000130F107003003180130F207003003181A
:1017E6000130F307042C7408F0027508031C750F0A
:1017F600F1027608031C760FF2027708031C770FB6
:10180600F3027308720471047004031D0B2C0C2C74
:101816003A2C7B08031D102C112C3A2C0030F300B7
:101826000030F2000030F1000030F000BA2C013038
:1018360083120313A0000310F00DF10DF20DF30D4A
:10184600A00B1E2CFB1F282C292C2A2C70147B1C69
:101856002D2C2E2C312C0314FB0D332C0310FB0DD9
:101866007A080319372C382C3A2C0130FA02F21F69
:101876003D2C3E2C1A2CF901FB1F422C432C512CDB
:101886007B087F390319482C492C4C2CF901F90A9D
:10189600512C701C4F2C502C512C492C79080319B3
:1018A600552C562C8C2C0130F007003003180130D3
:1018B600F107003003180130F20700300318013039
:1018C600F307731C672C682C8C2C70088312031387
:1018D600A0007108A1007208A2007308A3000130DD
:1018E600A400230DA30CA20CA10CA00CA40B742C19
:1018F6002308F3002208F2002108F1002008F00076
:101906007A0A0319872C882C8C2C0130FF007F085B
:10191600FA077A0A0319902C912C962C7A08031D43
:10192600952C962CA42C0030F3000030F2000030E9
:10193600F1000030F0007A08031DA22CA32CA42C81
:10194600F8017A1CA72CA82CAA2CF217AE2C7F30F3
:10195600FF007F08F2057A0883120313A000031024
:10196600200CF300F81FB82CB92CBA2CF31708007A
:101976008312031323088039A8002308F900790786
:10198600AE00A21FC72CC82CC92C2E142E08031972
:10199600CD2CCE2CDD2C2E0A031DD22CD32CDB2CE9
:1019A6000030A3000030A2000030A1000030A000EB
:1019B600A217E52C0030A3000030A2000030A100E1
:1019C6000030A00027088039FF007F08A8062708F6
:1019D600F9007907AD00A61FF12CF22CF32C2D147B
:1019E6002D080319F72CF82C072D2D0A031DFC2CA6
:1019F600FD2C052D0030A7000030A6000030A50004
:101A06000030A400A6170F2D0030A7000030A60056
:101A16000030A5000030A4002D080319132D142D45
:101A2600192D2E08031D182D192D222D0030A30067
:101A36000030A2000030A1000030A000FF2F2008D7
:101A4600F00026080A168A11E3200A128A15710880
:101A560083120313B4007008B3003308F900FA01C7
:101A6600FB01FC017C08AC007B08AB007A08AA00ED
:101A76007908A9003408F900FA01FB01FC017C0889
:101A8600B2007B08B1007A08B0007908AF002108DF
:101A9600F00025080A168A11E3200A128A15710831
:101AA60083120313B4007008B3003308F900FA0177
:101AB600FB01FC017908A9077A0803110318013E06
:101AC6000319662DAA077B0803110318013E0319A3
:101AD6006D2DAB077C0803110318013E0319742D05
:101AE600AC073408F900FA01FB01FC017908AF07DD
:101AF6007A0803110318013E0319822DB0077B08EB
:101B060003110318013E0319892DB1077C0803113F
:101B16000318013E0319902DB2072208F00024088D
:101B26000A168A11E3200A128A1571088312031312
:101B3600B4007008B3003308F900FA01FB01FC0198
:101B46007908A9077A0803110318013E0319AC2D79
:101B5600AA077B0803110318013E0319B32DAB072F
:101B66007C0803110318013E0319BA2DAC0734088B
:101B7600F900FA01FB01FC017908AF077A080311A5
:101B86000318013E0319C82DB0077B08031103187B
:101B9600013E0319CF2DB1077C0803110318013E3E
:101BA6000319D62DB2070830F9000310A90DAA0DA6
:101BB600AB0DAC0DF90BD82D2108F00024080A1640
:101BC6008A11E3200A128A15710883120313B400DE
:101BD6007008B3003308F9003408FA00FB01FC0171
:101BE6007908A9077A0803110318013E0319FC2D89
:101BF600AA077B0803110318013E0319032EAB073E
:101C06007C0803110318013E03190A2EAC072008AD
:101C1600F00025080A168A11E3200A128A157108AF
:101C260083120313B4007008B3003308F9003408B4
:101C3600FA00FB01FC017908A9077A0803110318C9
:101C4600013E0319272EAA077B0803110318013E3C
:101C560003192E2EAB077C0803110318013E031946
:101C6600352EAC070830F9000310A90DAA0DAB0DEF
:101C7600AC0DF90B372E2008F00024080A168A113D
:101C8600E3200A128A15710883120313B400700840
:101C9600B3003308F9003408FA00FB01FC017908A7
:101CA600A9077A0803110318013E03195B2EAA0738
:101CB6007B0803110318013E0319622EAB077C084B
:101CC60003110318013E0319692EAC072108F00021
:101CD60026080A168A11E3200A128A157108831249
:101CE6000313B4007008B3003308F9003408FA008F
:101CF600FB01FC017908AF077A0803110318013EBE
:101D06000319862EB0077B0803110318013E031939
:101D16008D2EB1077C0803110318013E0319942E7A
:101D2600B2072208F00025080A168A11E3200A12D3
:101D36008A15710883120313B4007008B3003308C0
:101D4600F9003408FA00FB01FC017908AF077A08AC
:101D560003110318013E0319B12EB0077B080311C6
:101D66000318013E0319B82EB1077C0803110318A6
:101D7600013E0319BF2EB2072208F00026080A16F4
:101D86008A11E3200A128A15710883120313B4001C
:101D96007008B3003308F9003408FA00FB01FC01AF
:101DA60008300310F90DFA0DFB0DFC0DFF3E031D67
:101DB600D42E7908AF077A0803110318013E0319D8
:101DC600E52EB0077B0803110318013E0319EC2E1C
:101DD600B1077C0803110318013E0319F32EB2075D
:101DE6002908F9002A08FA002B08FB002C08FC0039
:101DF60018300310FC0CFB0CFA0CF90CFF3E031D0B
:101E0600FC2E7908AF077A0803110318013E03195F
:101E16000D2FB0077B0803110318013E0319142F79
:101E2600B1077C0803110318013E03191B2FB207E3
:101E36000830F9000310A90DAA0DAB0DAC0DF90B76
:101E46001D2F2E082D07F900FA01FA0D7908823E9A
:101E5600B3007A080318013EFF3EB4004F2F01304D
:101E6600F9000310AF0DB00DB10DB20DF90B342F03
:101E7600AC1F3E2F3F2F402F2F140130F9000310C7
:101E8600A90DAA0DAB0DAC0DF90B422FFF30B30710
:101E96000318B40AFF30B407B11F522F532F322F45
:101EA600AD01AC1F572F582F742FFF302905F900AD
:101EB600FF302A05FA00FF302B05FB007F302C058A
:101EC600FC007C087B047A04790403196B2F6C2FC1
:101ED6006F2FAD01AD0A742F2F1C722F732F742F25
:101EE6006C2F2D080319782F792FAA2F0130AF07F1
:101EF600003003180130B007003003180130B10775
:101F0600003003180130B207321C8A2F8B2FAA2FFC
:101F16002F08F9003008FA003108FB003208FC00EF
:101F26000130FD007C0DFC0CFB0CFA0CF90CFD0BD2
:101F3600952F7C08B2007B08B1007A08B0007908BA
:101F4600AF000130B3070318B40A0030B4073408F1
:101F5600803AFF0080307F02031DB32FFF3033022B
:101F6600031CB62FB72FC22F7F3083120313B20084
:101F76008030B1000030B0000030AF00F32F831284
:101F860003133408803AFF0080307F02031DCD2FF3
:101F9600013033020318D02FD12FDD2F00308312EA
:101FA6000313B2000030B1000030B0000030AF00C3
:101FB600A801F32F831203133308AE00FF30AF05D9
:101FC600FF30B0057F30B1050030B2052E1CEC2F76
:101FD600ED2FEE2FB1172E08F9000310790CB20081
:101FE6002808FF007F08B2043208A3003108A200C7
:101FF6003008A1002F08A0000800FF1B0A28831341
:102006007F1883170008840A0319FF0A0800103096
:102016008A000408840A82070034583469346E340E
:1020260020346334683461346F340034203425340A
:102036002E3432346634003469346E3466340034F7
:082046006E3461346E34003485
:10205000F00070080F39303E080083120313D600D9
:10206000D230D7005608D800DA01DB01E101E201E5
:10207000831603135108CF005730D00058300A168A
:102080008A1134210A168A11831203135A0856073B
:10209000D500550884008313800108008030831226
:1020A0000313B8063C08F3003B08F2003A08F100BD
:1020B0003908F0003808F7003708F6003608F50050
:1020C0003508F4000A128A1557220A168A11730875
:1020D00083120313B8007208B7007108B6007008C5
:1020E000B5000800F401F501701C772878287E28D7
:1020F0007208F4070318F50A7308F5070130031096
:10210000F20DF30DFF3E031D7F2801300310F10C8B
:10211000F00CFF3E031D862870087104031D9128F2
:10212000922874287508F1007408F0000800AC28A3
:102130007408FF00730884000A168A1100200A162A
:102140008A110A168A118E210A168A110130F307A4
:102150000318F40A0030F407740883120313FF0015
:10216000730884000A168A1100200A168A11003AA0
:10217000031DBB28BC2898280800F4007008F6004E
:102180007408F500D4287608840083170008F3004B
:102190000130FF007F08F60775088400730880008F
:1021A0000130FF007F08F5070130F1020030031C09
:1021B000F203F202710A031DE128720A031DE128ED
:1021C000E228C3280800F800F401F5017008F200C5
:1021D000F3017208F6007308F700781CF028F12864
:1021E000F7287608F4070318F50A7708F507013091
:1021F0000310F60DF70DFF3E031DF8280310F80C31
:102200007808031D04290529ED287508F1007408D4
:10221000F000080083120313A300A101A2012629E4
:102220002008F900FA017908F0007A08F10078082E
:10223000F2000A168A1143220A168A11013083120B
:102240000313A1070318A20A0030A20721082307DD
:10225000F9007908840083170008A0002008031DF6
:10226000322933291029080083120313D30083165F
:1022700003134F0883120313D4004C2954308316E0
:102280000313CD005008CE008312031353080A161F
:102290008A118F250A168A118312031354088400A9
:1022A0000A168A110A200A168A11003A031D5929B2
:1022B0005A293E2983160313CF01D0010800F200EA
:1022C0007208F03983120313860006158610061073
:1022D0000730F1007D30F000F00B6C29F10B6C2918
:1022E0008312031306117208F00003300310F00D7F
:1022F000FF3E031D76290310700DF0398600061588
:10230000861006100730F1007D30F000F00B8629B2
:10231000F10B86298312031306110800F2007208DC
:10232000F039831203138600061586100614073051
:10233000F1007D30F000F00B9B29F10B9B298312FB
:10234000031306117208F00003300310F00DFF3E76
:10235000031DA5290310700DF0398600061586109F
:1023600006140730F1007D30F000F00BB529F10BB9
:10237000B5298312031306110800F1000A168A1505
:102380004B270A168A11D0308312031393000A16C2
:102390008A153B270A168A1183160313111BD129AC
:1023A000D229BE2971080A168A158A270A168A11A7
:1023B0000A168A154B270A168A11D1300A168A1571
:1023C0008A270A168A110A168A157E270A168A1182
:1023D000F2000A168A155D270A168A110A168A154E
:1023E00054270A168A117208080000307005F80098
:1023F00000307105F90080307205FA007F307305F6
:10240000FB007B087A0479047804031D082A092A52
:10241000112A0030F3000030F2000030F1000030EB
:10242000F00000307405F80000307505F9008030C8
:102430007605FA007F307705FB007B087A04790483
:102440007804031D242A252A2D2A0030F7000030A5
:10245000F6000030F5000030F40077087306031D25
:102460003B2A76087206031D3B2A75087106031D78
:102470003B2A7408700603193E2A3F2A412A03109A
:10248000422A0314080072080319472A482A4D2AD1
:102490007208031D4C2A4D2A542A70080A128A1108
:1024A00004200A168A11982A7208093E84008313B0
:1024B0000008F300840A0008F40073087404031988
:1024C000622A632A812A7208093E84000008F30008
:1024D000840A0008F4007208023E84000008F50037
:1024E000840A0008F6007608803AF7007408803AFB
:1024F0007702031D7D2A730875020318802A812A3A
:10250000982A7208023E840083130008F3007208C0
:10251000840000087307F4007408840070088000C9
:102520007208023E840001308007840A0318800A82
:102530000800FB00F901FA017B08840083130008FE
:1025400084000A168A110A200A168A112A3A031DE3
:10255000AA2AAB2ADB2A0130FF007B0884007F080F
:102560008007760884000008FF00023080077F089B
:1025700084000008F900840A0008FA00EC2A7A08AE
:10258000F1007908F0000A30F2000030F3000A167A
:102590008A1172200A168A1178087007F900003033
:1025A000031801307107FA000130FF007B08840036
:1025B0007F08831380077B088400000884000A16C4
:1025C0008A110A200A168A11D03EF8000A307802D1
:1025D000031CEB2AEC2ABF2A7A08F7007908F600D8
:1025E00008000310720D730DF9007908031DF92A14
:1025F000FA2A032B0030F3000030F2000030F10023
:102600000030F000662B7008F4007108F5007208C5
:10261000F6007308F7001F300310F70CF60CF50CEA
:10262000F40CFF3E031D0C2B7408F800F217FF306A
:10263000F005FF30F105FF30F2050030F30596306C
:10264000F902F91F242B252B3F2B7908803A973E5E
:1026500003182B2B2C2B2D2BFA2A01300310F30CF3
:10266000F20CF10CF00CFF3E031D2E2B0130FF008D
:102670007F08F907031D3D2B3E2B2D2B562B2030B9
:102680007902031C442B452B512BFA2A0130F4000C
:102690000310F00DF10DF20DF30DF40B482B01308A
:1026A000F9027908031D552B562B462B7808031980
:1026B0005A2B5B2B662BF009F109F209F309F00A9A
:1026C0000319F10A0319F20A0319F30A0800831621
:1026D0000313670883120313C000831603136608ED
:1026E00083120313BF0083160313650883120313B9
:1026F000BE0083160313640883120313BD00300861
:10270000C0002F08BF002E08BE002D08BD003D08E8
:10271000B1003E08B2003F08B3004008B4001730D3
:102720000310B40CB30CB20CB10CFF3E031D902B84
:10273000FF303105B50000303205B6003508813E66
:10274000BB0036080318013EFF3EBC003C08803A3F
:10275000FF0080307F02031DAF2B17303B02031CAC
:10276000B22BB32BB42B752C83120313BC1BB92BC8
:10277000BA2B2A2C3B0AFF00FF30B100FF30B20019
:102780007F30B3000030B400CA2B340DB40CB30C4E
:10279000B20CB10CFF0BC52B3408BA003308B900DA
:1027A0003208B8003108B70037083D05B1003808D5
:1027B0003E05B20039083F05B3003A084005B400B1
:1027C0003408330432043104031DE72BE82BE92BD2
:1027D000B32B3D08B1003E08B2003F08B3004008EB
:1027E000B4001F300310B40CB30CB20CB10CFF3E9C
:1027F000031DF22B34083304320431040319012C75
:10280000022C192C3708BD07380803110318013EA4
:1028100003190B2CBE07390803110318013E0319D5
:10282000122CBF073A0803110318013E0319192C93
:10283000C0073709B1003809B2003909B3003A09B5
:10284000B4003108BD053208BE053308BF053408A1
:10285000C0056D2C3D08B1003E08B2003F08B30032
:102860004008B4001F300310B40CB30CB20CB10C10
:10287000FF3E031D332C3408330432043104031D9E
:10288000422C432C4C2C0030C0000030BF000030E4
:10289000BE000030BD006D2C3D08B1003E08B20006
:1028A0003F08B3004008B40001300310B10DB20D71
:1028B000B30DB40DFF3E031D552C34083304320410
:1028C00031040319642C652C6D2CBF30C00080309E
:1028D000BF000030BE000030BD004008B0003F081F
:1028E000AF003E08AE003D08AD000800831603139C
:1028F000AF00C20183120313440883160313C800F8
:1029000083120313430883160313C70083120313B0
:10291000420883160313C60083120313410883166B
:102920000313C500480883120313B800831603136A
:10293000470883120313B700831603134608831254
:102940000313B60083160313450883120313B5005F
:102950000030BC000030BB000030BA000030B900CD
:102960000A128A113F200A168A110318B82CB92CB2
:10297000D42C83160313C201C20A4808F300470887
:10298000F2004608F1004508F0000A168A1567278C
:102990000A168A11730883160313C8007208C70049
:1029A0007108C6007008C50083160313C301C40173
:1029B000831203136A0883160313B30083120313ED
:1029C000690883160313B20042080319E82CE92CA6
:1029D000F92C4208031DED2CEE2CF32C2B30A60015
:1029E0000030A700F72C2D30A6000030A7002608E5
:1029F000C2004808F3004708F2004608F100450805
:102A0000F0000A128A1503200A168A117003710455
:102A1000031D0B2D0C2D432D8316031342080319A0
:102A2000122D132D232D4208831603179000FF301B
:102A300083160313B2070318B30AFF30B30701303C
:102A4000C3000030C4001030F0004308903E0A1666
:102A50008A15C6270A168A11FD3083160313B2079A
:102A60000318B30AFF30B3079030FB003308FD00B2
:102A70003208FC002F080A128A1105200A168A1152
:102A80000A128A11E12F831603134808F30047083E
:102A9000F2004608F1004508F0000A128A150320EA
:102AA0000A168A1170087104031D572D5A2D0A1237
:102AB0008A11E3288316031342080319602D612D40
:102AC000712D4208831603179000FF3083160313FD
:102AD000B2070318B30AFF30B3070130C300003058
:102AE000C4001430F0004308903E0A168A15C62729
:102AF0000A168A11FD3083160313B2070318B30AAE
:102B0000FF30B3079030FB003308FD003208FC00B3
:102B10002F080A128A1105200A168A11402D8312E5
:102B20000313D000831603134D0884008313000899
:102B300084000A168A110A200A168A11253A031DF2
:102B4000A22DA32D982E0130FF004D0884007F0890
:102B5000800783120313E901EA0103100030031810
:102B6000013083160313E800FF3083120313EB00D8
:102B7000FF30EC00831603134D0884000008840026
:102B80000A168A110A200A168A112E3A031DC92D27
:102B9000CA2DDE2D0130FF004D0884007F0880071C
:102BA0004E08F6004D080A168A1199220A168A1153
:102BB000770883120313EC007608EB0083160313E7
:102BC0004D0884008313000883120313D2005208B7
:102BD00084000A168A110A200A168A11D100FA2DD9
:102BE0000130FF007F08D2070D2E6C30D1000D2E72
:102BF000D1010D2E5108CA00CB014B08003A031930
:102C0000022EF82D4A084C3A0319F02D2A3A0319DE
:102C1000F52D0A3A0319F02DF82D520884000A16F2
:102C20008A110A200A168A11663A031D182E192ED7
:102C30008E2E4A2E831603134E0884000008FF00D0
:102C4000043080077F088400000883120313CC003F
:102C5000840A0008CD00840A0008CE00840A000817
:102C6000CF005A2E831603134E0884000008FF007D
:102C7000043080077F088400000883120313CC000F
:102C8000840A0008CD00840A0008CE00840A0008E7
:102C9000CF005A2E5108CA00CB014B08003A031945
:102CA000522E5A2E4A084C3A0319322E203A031952
:102CB0001A2E5A2E831603134D0884008312031311
:102CC0005208013E80007B2E4F08C4004E08C3000E
:102CD0004D08C2004C08C100520884000A168A112F
:102CE0000A200A168A11C50050080A168A1176248D
:102CF0000A168A11B12E520884000A168A110A2077
:102D00000A168A11CA00CB014B08003A0319892E12
:102D10008E2E4A08663A0319642E8E2E0130FF006B
:102D2000831603134D0884007F0883138007B12E98
:102D30004D088400000884000A168A110A200A1629
:102D40008A1183120313CA00CB014A08F0004B0812
:102D5000F1005008F2000A168A1143220A168A115D
:102D60008E2E08008316031386010A168A15B027D3
:102D70000A168A110A168A15E1270A168A110130E5
:102D8000F3008030F4000A168A1197200A168A117F
:102D900000300A168A11BD210A168A118316031300
:102DA000EF0001300A168A11BD210A168A11831616
:102DB0000313EE0002300A168A11BD210A168A1189
:102DC00083160313ED0003300A168A11BD210A167B
:102DD0008A1183160313EC0004300A168A11BD21F0
:102DE0000A168A1183160313EB0005300A168A119E
:102DF000BD210A168A1183160313EA0006300A164B
:102E00008A11BD210A168A1183160313E900803046
:102E10000A168A115F210A168A11831603136D0898
:102E20000A168A1572270A168A110A168A118E2125
:102E30000A168A11831603136D080A168A112820B0
:102E40000A168A110A168A118E210A168A113A3038
:102E50000A168A118E210A168A110A308316031364
:102E6000D1006D0883120313E300E40163088316A5
:102E70000313D20083120313640883160313D300D1
:102E8000D4300A168A112D200A168A1183160313CC
:102E90006D0883120313E300E4016308F300640880
:102EA000F4000A168A1197200A168A118316031352
:102EB0006E080A168A1572270A168A110A168A11CE
:102EC0008E210A168A11831603136E080A168A11B8
:102ED00028200A168A110A168A118E210A168A11CA
:102EE0003A300A168A118E210A168A1183160313A4
:102EF0006F080A168A1572270A168A110A168A118D
:102F00008E210A168A11831603136F080A168A1176
:102F100028200A168A110A168A118E210A168A1189
:102F20003A300A168A118E210A168A11C0300A1602
:102F30008A115F210A168A11831603136B080A1679
:102F40008A1572270A168A110A168A118E210A1604
:102F50008A11831603136B080A168A1128200A1691
:102F60008A110A168A118E210A168A113A300A1617
:102F70008A118E210A168A11831603136A080A160B
:102F80008A1572270A168A110A168A118E210A16C4
:102F90008A11831603136A080A168A1128200A1652
:102FA0008A110A168A118E210A168A113A300A16D7
:102FB0008A118E210A168A118316031369080A16CC
:102FC0008A1572270A168A110A168A118E210A1684
:102FD0008A118316031369080A168A1128200A1613
:102FE0008A110A168A118E210A168A113A300A1697
:102FF0008A118E210A168A11C82E0A128A110028F7
:103E7600831203138C1D402F412F3B2F8C110800FA
:103E860064008001840A0406031900340406442FE2
:103E96008316031391140A168A153B270A168A15E8
:103EA60008008316031311150A168A153B270A16EE
:103EB6008A15080083160313911611160A168A1519
:103EC6003B270A168A1508007308720471047004E9
:103ED60003196E2F6F2F712F8030F3060800F10043
:103EE6007108F00004300310F00CFF3E031D762F1E
:103EF6007008303E08008316031391150A168A15BA
:103F06003B270A168A158312031313080800F000CC
:103F160070088312031393000A168A153B270A16A4
:103F26008A1583160313111B992F9A2F942F0800B5
:103F3600F31B9E2F9F2FA02FAF2F7009F000710942
:103F4600F1007209F2007309F300F00A0319F10A8D
:103F56000319F20A0319F30A080083160313071656
:103F6600071AB62FBA2F831603138715BD2F83168C
:103F7600031387112830831203139400FF3083162E
:103F8600031393000800F2007208F1000130F007F5
:103F9600FF30700784000A168A110A200A168A154D
:103FA600FF00710884000130F1077F088317800045
:103FB6000008031DDF2FE02FC92F080002300A1664
:103FC6008A115F210A168A1528300A168A115F217E
:103FD6000A168A150C300A168A115F210A168A15E6
:103FE60006300A168A115F210A168A1501300A164A
:0A3FF6008A115F210A168A150800DF
:02400E00363F3B
:00000001FF
