:060000000A128A11FC2F18
:100EAC004130831203139F00C030831603139F003D
:100EBC00080002300A128A11CD270A128A11283032
:100ECC000A128A11CD270A128A110C300A128A11C1
:100EDC00CD270A128A1106300A128A11CD270A125E
:100EEC008A1101300A128A11CD270A128A110800C0
:100EFC008316031386010514880187010A128A11CF
:100F0C005F270A128A110A128A1156270A128A11AD
:100F1C0000300A128A11A2270A128A117108F600EF
:100F2C007008F50075088312031387007608880093
:100F3C008E2F0A128A110028F4000130FF007F085E
:100F4C00831203139F057408F20002300310F20D94
:100F5C00FF3E031DAC2F0310720DFF007F089F0492
:100F6C000330F3009730F200F20BBA2FF30BBA2FC9
:100F7C00BF2F831203131F151F19C52FC62FC22F86
:100F8C001E08F100831603131E08F0000800F2007F
:100F9C007208F039831203138600061586100610AA
:100FAC000730F1007D30F000F00BDA2FF10BDA2F67
:100FBC008312031306117208F00003300310F00DB6
:100FCC00FF3E031DE42F0310700DF039860006154B
:100FDC00861006100730F1007D30F000F00BF42F76
:100FEC00F10BF42F831203130611080083010A126C
:040FFC008A117E2FA9
:02400E00363F3B
:00000001FF
