:060000000A128A11FC2F18
:100F3800F2018316031387018312031387018316B3
:100F4800031308148814C72F0130F000720AAE2F5B
:100F58000310F00DFF3E031DAC2F70088700013011
:100F6800FF007F08F2078230F100DD30F000F00B5F
:100F7800BB2FF10BBB2FC02F04307206031DC52FEA
:100F8800C62FC72FF20183120313081CCC2FCD2FB5
:100F9800A82FF22F720AFF000830F0000030F1008D
:100FA800D82F710DF10CF00CFF0BD52F70088312A0
:100FB800031387000130FF007F08F2078230F10039
:100FC800DD30F000F00BE62FF10BE62FEB2F0430AD
:100FD8007206031DF02FF12FF22FF2018312031373
:100FE800881CF72FF82FCE2FC72F0A128A11002836
:080FF80083010A128A119C2FEB
:00000001FF
