:060000000A128A11EE2F26
:100F4800C034F934A434B034993492348234F83447
:100F5800803498347E088A007F0882000A128A1139
:100F6800AE270A128A118000840A04087D06031934
:100F78000034FF0A0319FE0AB22F831603138801EF
:100F8800F301F4017308203E8400831300088312E0
:100F9800031388000330F2008A30F1005530F00066
:100FA800F00BD42FF10BD42FF20BD42FDB2F013001
:100FB800F3070318F40A0030F407003074020A300B
:100FC80003197302031CE92FEA2FC62FC42F0A1234
:100FD8008A11002883132A30FD000730FE00A43050
:100FE800FF00203084000A128A11B2270A128A11DF
:080FF80083010A128A11C12FC6
:02400E00363F3B
:00000001FF
