:100000000A128A11FC2F00308A000408840A820731
:1000100000344B34453459345034413444343A3448
:040020002034003454
:100C4C00F400F5013A2E7508740784000A128A1113
:100C5C0003200A128A110A128A1187260A128A1193
:100C6C000130FF007F08F50773087502031C3F2E47
:100C7C00402E292E080002300A128A11B8260A12B8
:100C8C008A1128300A128A11B8260A128A110C30DD
:100C9C000A128A11B8260A128A1106300A128A110F
:100CAC00B8260A128A1101300A128A11B8260A12C1
:100CBC008A110800831603138601F03087000A128C
:100CCC008A1141260A128A1180300A128A11B8261A
:100CDC000A128A110730F30001300A128A112626F3
:100CEC000A128A11C0300A128A11B8260A128A1105
:100CFC000A128A11E9260A128A117E2E0A128A1108
:100D0C000028F2007208F0398312031386000615CE
:100D1C00861006142130F1007630F000F00B942E82
:100D2C00F10B942E00008312031306117208F000CD
:100D3C0003300310F00DFF3E031D9F2E0310700DAA
:100D4C00F03986000615861006142130F100763035
:100D5C00F000F00BAF2EF10BAF2E0000831203133B
:100D6C0006110800F2007208F03983120313860092
:100D7C000615861006102130F1007630F000F00BCD
:100D8C00C52EF10BC52E0000831203130611720839
:100D9C00F00003300310F00DFF3E031DD02E0310A6
:100DAC00700DF03986000615861006102130F10002
:100DBC007630F000F00BE02EF10BE02E00008312E9
:100DCC00031306110800831203130714871107116C
:100DDC008710071EF22EF32EFF2E37300A128A11BF
:100DEC0087260A128A1183120313071AFE2EFF2E6E
:100DFC00F92E871E022F032F0F2F38300A128A115B
:100E0C0087260A128A1183120313871A0E2F0F2FAB
:100E1C00092F071F122F132F1F2F39300A128A1177
:100E2C0087260A128A1183120313071B1E2F1F2FEA
:100E3C00192F871F222F232F2F2F41300A128A118F
:100E4C0087260A128A1183120313871B2E2F2F2F2A
:100E5C00292F8714871107110710071E362F372FDC
:100E6C00432F34300A128A1187260A128A118312F0
:100E7C000313071A422F432F3D2F871E462F472F50
:100E8C00532F35300A128A1187260A128A118312BF
:100E9C000313871A522F532F4D2F071F562F572FDF
:100EAC00632F36300A128A1187260A128A1183128E
:100EBC000313071B622F632F5D2F871F662F672F6E
:100ECC00732F42300A128A1187260A128A11831252
:100EDC000313871B722F732F6D2F07158711871024
:100EEC000710071E7A2F7B2F872F31300A128A1199
:100EFC0087260A128A1183120313071A862F872F4B
:100F0C00812F871E8A2F8B2F972F32300A128A112E
:100F1C0087260A128A1183120313871A962F972F8A
:100F2C00912F071F9A2F9B2FA72F33300A128A114C
:100F3C0087260A128A1183120313071BA62FA72FC9
:100F4C00A12F871FAA2FAB2FB72F43300A128A115C
:100F5C0087260A128A1183120313871BB62FB72F09
:100F6C00B12F8715071187100710071EBE2FBF2F33
:100F7C00CB2F2A300A128A1187260A128A11831261
:100F8C000313071ACA2FCB2FC52F871ECE2FCF2F97
:100F9C00DB2F30300A128A1187260A128A1183122B
:100FAC000313871ADA2FDB2FD52F071FDE2FDF2F26
:100FBC00EB2F3D300A128A1187260A128A118312EE
:100FCC000313071BEA2FEB2FE52F871FEE2FEF2FB5
:100FDC00FB2F44300A128A1187260A128A118312B7
:100FEC000313871BFA2FFB2FF52F080083010A121E
:040FFC008A11602EC8
:02400E00363F3B
:00000001FF
